:060000000A128A110C280F
:10000800FE00030EF2000A08F3000A128A11662E97
:100018000A128A110F288313B030FD000730FE0042
:100028003130FF00A03084000A128A1122270A12F8
:100038008A116430FD000730FE004130FF005E3059
:1000480084000A128A1122270A128A11D301D401C4
:10005800D501D601D701D801D901DA01DB01DC01CC
:10006800DD01F90183010A128A11392C8312031365
:100078002D088039B7002D08B2003207BD00AC1F2B
:100088004628472848283D143D0803194C284D2880
:100098005C283D0A031D512852285A280030AD001B
:1000A8000030AC000030AB000030AA00AC17642868
:1000B8000030AD000030AC000030AB000030AA00CA
:1000C80031088039B2003208B7063108B200320769
:1000D800BC00B01F7028712872283C143C08031912
:1000E8007628772886283C0A031D7B287C288428C4
:1000F8000030B1000030B0000030AF000030AE007A
:10010800B0178E280030B1000030B0000030AF00CA
:100118000030AE003C0803199228932898283D081F
:10012800031D97289828A1280030AD000030AC00A6
:100138000030AB000030AA007E2B2A08F4003008FB
:100148000A128A11F5260A128A11750883120313F6
:10015800C3007408C2004208B200B301B401B5017B
:100168003508BB003408BA003308B9003208B800B3
:100178004308B200B301B401B5013508C100340821
:10018800C0003308BF003208BE002B08F4002F0857
:100198000A128A11F5260A128A11750883120313A6
:1001A800C3007408C2004208B200B301B401B5012B
:1001B8003208B807330803110318013E0319E5286C
:1001C800B907340803110318013E0319EC28BA07CC
:1001D800350803110318013E0319F328BB07430828
:1001E800B200B301B401B5013208BE0733080311E8
:1001F8000318013E03190129BF0734080311031826
:10020800013E03190829C007350803110318013EE8
:1002180003190F29C1072C08F4002E080A128A11A5
:10022800F5260A128A11750883120313C30074088D
:10023800C2004208B200B301B401B5013208B807E0
:10024800330803110318013E03192B29B907340891
:1002580003110318013E03193229BA07350803119F
:100268000318013E03193929BB074308B200B3013B
:10027800B401B5013208BE07330803110318013E63
:1002880003194729BF07340803110318013E03194E
:100298004E29C007350803110318013E03195529D3
:1002A800C1070830B2000310B80DB90DBA0DBB0D67
:1002B800B20B57292B08F4002E080A128A11F526CA
:1002C8000A128A11750883120313C3007408C20046
:1002D8004208B2004308B300B401B5013208B807B8
:1002E800330803110318013E03197B29B9073408A1
:1002F80003110318013E03198229BA0735080311AF
:100308000318013E03198929BB072A08F4002F089E
:100318000A128A11F5260A128A1175088312031324
:10032800C3007408C2004208B2004308B300B40115
:10033800B5013208B807330803110318013E031941
:10034800A629B907340803110318013E0319AD297A
:10035800BA07350803110318013E0319B429BB076E
:100368000830B2000310B80DB90DBA0DBB0DB20BB1
:10037800B6292A08F4002E080A128A11F5260A124C
:100388008A11750883120313C3007408C200420857
:10039800B2004308B300B401B5013208B807330806
:1003A80003110318013E0319DA29B90734080311A8
:1003B8000318013E0319E129BA0735080311031888
:1003C800013E0319E829BB072B08F40030080A127C
:1003D8008A11F5260A128A11750883120313C300BD
:1003E8007408C2004208B2004308B300B401B50162
:1003F8003208BE07330803110318013E0319052A02
:10040800BF07340803110318013E03190C2AC0075B
:10041800350803110318013E0319132AC1072C08D4
:10042800F4002F080A128A11F5260A128A11750893
:1004380083120313C3007408C2004208B2004308C1
:10044800B300B401B5013208BE073308031103181D
:10045800013E0319302ABF07340803110318013E6F
:100468000319372AC007350803110318013E031979
:100478003E2AC1072C08F40030080A128A11F52612
:100488000A128A11750883120313C3007408C20084
:100498004208B2004308B300B401B50108300310A4
:1004A800B20DB30DB40DB50DFF3E031D532A32082E
:1004B800BE07330803110318013E0319642ABF0756
:1004C800340803110318013E03196B2AC0073508C5
:1004D80003110318013E0319722AC1073808B20034
:1004E8003908B3003A08B4003B08B50018300310C7
:1004F800B50CB40CB30CB20CFF3E031D7B2A3208BA
:10050800BE07330803110318013E03198C2ABF07DD
:10051800340803110318013E0319932AC00735084C
:1005280003110318013E03199A2AC1070830B200C3
:100538000310B80DB90DBA0DBB0DB20B9C2A3D08BE
:100548003C07B200B301B30D3208823EC200330843
:100558000318013EFF3EC300CE2A0130B20003104B
:10056800BE0DBF0DC00DC10DB20BB32ABB1FBD2AF6
:10057800BE2ABF2A3E140130B2000310B80DB90DCF
:10058800BA0DBB0DB20BC12AFF30C2070318C30A4C
:10059800FF30C307C01FD12AD22AB12ABC01BB1F12
:1005A800D62AD72AF32AFF303805B200FF3039059A
:1005B800B300FF303A05B4007F303B05B50035087D
:1005C8003404330432040319EA2AEB2AEE2ABC0164
:1005D800BC0AF32A3E1CF12AF22AF32AEB2A3C0829
:1005E8000319F72AF82A292B0130BE07003003180F
:1005F8000130BF07003003180130C007003003186E
:100608000130C107411C092B0A2B292B3E08B200D7
:100618003F08B3004008B4004108B5000130B600F7
:10062800350DB50CB40CB30CB20CB60B142B350845
:10063800C1003408C0003308BF003208BE000130D2
:10064800C2070318C30A0030C3074308803AFF00F3
:1006580080307F02031D322BFF304202031C352BF2
:10066800362B412B7F3083120313C1008030C0002A
:100678000030BF000030BE00722B83120313430802
:10068800803AFF0080307F02031D4C2B013042026C
:1006980003184F2B502B5C2B003083120313C1001F
:1006A8000030C0000030BF000030BE00B701722B20
:1006B800831203134208BD00FF30BE05FF30BF059B
:1006C8007F30C0050030C1053D1C6B2B6C2B6D2B9A
:1006D800C0173D08B2000310320CC1003708B20041
:1006E8003208C1044108AD004008AC003F08AB0027
:1006F8003E08AA00080083120313A4002408031963
:10070800862B872B9B2BF71F8A2B8B2B9B2B7409F4
:10071800A6007509A7007609A8007709A900A60A06
:100728000319A70A0319A80A0319A90AA32B77080A
:10073800A9007608A8007508A7007408A60077081D
:10074800760475047404031DAA2BAB2BB42B00305C
:10075800F7000030F6000030F5000030F400382CC7
:100768009630A500C42B0130A0002008A507013051
:100778000310A90CA80CA70CA60CFF3E031DBC2B4C
:10078800FE302905031DC92BCA2BB72BE62B0130D8
:10079800A0002008A5070130A60700300318013083
:1007A800A707003003180130A807003003180130EC
:1007B800A90701300310A90CA80CA70CA60CFF3E32
:1007C800031DDE2BFF302905031DEB2BEC2BCB2B58
:1007D800F82B0130A5020130A0000310A60DA70DCB
:1007E800A80DA90DA00BF12BA81BFB2BFC2B022C91
:1007F800023025020318012C022CED2B2518052C9C
:10080800062C0E2CFF30A605FF30A7057F30A80563
:10081800FF30A9050310A50C2508A000A101A2011D
:10082800A30118300310A00DA10DA20DA30DFF3ECA
:10083800031D162C2008A6042108A7042208A804D2
:100848002308A904240803192A2C2B2C302CF71F61
:100858002E2C2F2C302CA9172908F7002808F60071
:100868002708F5002608F40008000A128A11B226A3
:100878000A128A11831203139F145808F4005908A6
:10088800F5000030F51BFF30F600F70001300A12C2
:100898008A117F230A128A11770883120313B10081
:1008A8007608B0007508AF007408AE003C30AD00A3
:1008B800A030AC00A030AB00A130AA000A128A1107
:1008C8003A200A128A11831203132D08D2002C0829
:1008D800D1002B08D0002A08CF005208B1005108D7
:1008E800B0005008AF004F08AE004230AD00C8302D
:1008F800AC000030AB000030AA000A128A113A207E
:100908000A128A11831203132D08C7002C08C60087
:100918002B08C5002A08C4000A128A11DB240A120F
:100928008A11831203134508D7004408D6005708D4
:10093800A5005608A4000A128A1117260A128A115D
:10094800831203135B08A03E840083130008D300BE
:100958005C08A03E84000008D4005D085E3E840068
:100968000008D5009F18B92CBA2C412C1F0CCE00BA
:100978004E0C0F39063A031DC22CC32CC82C1F0875
:10098800C33914389F00CC2C1F08C33918389F006E
:10099800C73083120313CE00D12CCE0BD02CD42C0D
:1009A800831203139F14412C0A128A110C28031076
:1009B80083120313460D470DCD004D08031DE52C8A
:1009C800E62CEF2C0030C7000030C6000030C50010
:1009D8000030C400522D4408C8004508C900460824
:1009E800CA004708CB001F300310CB0CCA0CC90C37
:1009F800C80CFF3E031DF82C4808CC00C617FF3072
:100A0800C405FF30C505FF30C6050030C705963060
:100A1800CD02CD1F102D112D2B2D4D08803A973E5C
:100A28000318172D182D192DE62C01300310C70CAB
:100A3800C60CC50CC40CFF3E031D1A2D0130C8009E
:100A48004808CD07031D292D2A2D192D422D2030A8
:100A58004D02031C302D312D3D2DE62C0130C800F0
:100A68000310C40DC50DC60DC70DC80B342D0130BC
:100A7800CD024D08031D412D422D322D4C0803197E
:100A8800462D472D522DC409C509C609C709C40AF0
:100A98000319C50A0319C60A0319C70A08008312ED
:100AA8000313A101F51F592D5A2D612DF409F509DC
:100AB800F40A0319F50AA101A10AF71F642D652D8F
:100AC8006E2DF609F709F60A0319F70A0130F8003E
:100AD8007808A106A201A301740875040319752DED
:100AE800762DAD2DA001A00A842D01300310F40D40
:100AF800F50DFF3E031D7A2D0130F8007808A00798
:100B0800F51F872D882D792D01300310A20DA30D17
:100B1800FF3E031D892D75087702031D952D740866
:100B28007602031C982D992DA02D7408F6027508DD
:100B3800031CF703F702221401300310F50CF40C20
:100B4800FF3E031DA12D0130A002031DAC2DAD2DCC
:100B5800882D21080319B12DB22DB72DA209A3099B
:100B6800A20A0319A30A2308F5002208F4000800C2
:100B780083120313A101F71FC22DC32DCA2DF60935
:100B8800F709F60A0319F70AA101A10AF51FCD2DE5
:100B9800CE2DD32DF409F509F40A0319F50A7408C2
:100BA80075040319D82DD92D082EA001A00AE72D08
:100BB80001300310F40DF50DFF3E031DDD2D01304E
:100BC800F8007808A007F51FEA2DEB2DDC2D750835
:100BD8007702031DF12D74087602031CF42DF52D00
:100BE800FB2D7408F6027508031CF703F7020130A1
:100BF8000310F50CF40CFF3E031DFC2D0130A00280
:100C0800031D072E082EEB2D210803190C2E0D2E7F
:100C1800122EF609F709F60A0319F70A7708F500FC
:100C28007608F40008006430F4000030F500831200
:100C380003132508F7002408F6000A128A11532521
:100C48000A128A11740883120313DD006430F40059
:100C58000030F5002508F7002408F6000A128A116A
:100C6800BC250A128A11740883120313DA000A30A9
:100C7800F4000030F5005A08A600A7012608F6007F
:100C88002708F7000A128A1153250A128A117408D4
:100C980083120313DC000A30F4000030F5005A0810
:100CA800A600A7012608F6002708F7000A128A11ED
:100CB800BC250A128A11740883120313DA005A0831
:100CC800DB000800831203130C1F6B2E6C2E802E82
:100CD8001F0CF000700C0F39063A031D742E752E88
:100CE8007D2E1E08F000F1017008D8007108D900A7
:100CF8007F2E1E0885000C130B1D832E842EAB2E11
:100D080088017908031D892E8A2E912E550887009F
:100D180001308800F901F90AA82E7903031D952EE0
:100D2800962E9D2E54088700023088000230F90064
:100D3800A82E02307906031DA22EA32EA82E530832
:100D4800870004308800F901833081000B11730893
:100D58008A00720E8300FE0E7E0E09006030831634
:100D68000317880089018316031385018601033060
:100D7800890087018801831203138501860189018F
:100D880087018801831603130F088F3960388F0095
:100D98000F149F131F129F12831203131F083F394A
:100DA80040389F001F08C33914389F001F141030A3
:100DB800F400F40BDD2E0000831603138112811159
:100DC8000108F83902388100833083120313810047
:100DD8008B160B110C13831603130C170B178B1799
:100DE800080083120313A400A001A1017408F600EF
:100DF800F7017608A2007708A300241C042F052F0A
:100E08000B2F2208A0070318A10A2308A107013005
:100E18000310A20DA30DFF3E031D0C2F0310A40CFD
:100E28002408031D182F192F012F2108F500200869
:100E3800F40008007E088A007F0882000A128A11DE
:100E48001E270A128A118000840A04087D060319E5
:100E58000034FF0A0319FE0A222F3F3406345B349C
:100E68004F3466346D347D3407347F3467347734D7
:100E78007C3439345E3479347134BF348634DB34AD
:060E8800CF34E634ED3426
:08400000FF3FFF3FFF3FFF3FC0
:04400E00D420FF3F7C
:00000001FF
